{
  "contractName": "EWill",
  "abi": [
    {
      "inputs": [
        {
          "internalType": "address",
          "name": "_nominee",
          "type": "address"
        }
      ],
      "stateMutability": "nonpayable",
      "type": "constructor"
    },
    {
      "anonymous": false,
      "inputs": [
        {
          "indexed": true,
          "internalType": "address",
          "name": "sender",
          "type": "address"
        },
        {
          "indexed": false,
          "internalType": "uint256",
          "name": "amount",
          "type": "uint256"
        },
        {
          "indexed": false,
          "internalType": "uint256",
          "name": "balance",
          "type": "uint256"
        }
      ],
      "name": "Deposit",
      "type": "event"
    },
    {
      "anonymous": false,
      "inputs": [
        {
          "indexed": true,
          "internalType": "address",
          "name": "previousNominee",
          "type": "address"
        },
        {
          "indexed": true,
          "internalType": "address",
          "name": "newNominee",
          "type": "address"
        }
      ],
      "name": "NomineeChanged",
      "type": "event"
    },
    {
      "anonymous": false,
      "inputs": [
        {
          "indexed": true,
          "internalType": "address",
          "name": "previousOwner",
          "type": "address"
        },
        {
          "indexed": true,
          "internalType": "address",
          "name": "newOwner",
          "type": "address"
        }
      ],
      "name": "OwnershipTransferred",
      "type": "event"
    },
    {
      "stateMutability": "payable",
      "type": "receive"
    },
    {
      "inputs": [
        {
          "internalType": "address payable",
          "name": "_newOwner",
          "type": "address"
        }
      ],
      "name": "transferOwnership",
      "outputs": [],
      "stateMutability": "nonpayable",
      "type": "function"
    },
    {
      "inputs": [
        {
          "internalType": "address",
          "name": "_nominee",
          "type": "address"
        }
      ],
      "name": "changeNominee",
      "outputs": [],
      "stateMutability": "nonpayable",
      "type": "function"
    },
    {
      "inputs": [],
      "name": "checkIn",
      "outputs": [],
      "stateMutability": "nonpayable",
      "type": "function"
    },
    {
      "inputs": [
        {
          "internalType": "uint256",
          "name": "value",
          "type": "uint256"
        }
      ],
      "name": "withdraw",
      "outputs": [],
      "stateMutability": "nonpayable",
      "type": "function"
    },
    {
      "inputs": [],
      "name": "destroy",
      "outputs": [],
      "stateMutability": "nonpayable",
      "type": "function"
    }
  ],
  "bytecode": "0x608060405234801561001057600080fd5b50604051610ab6380380610ab68339818101604052602081101561003357600080fd5b8101908080519060200190929190505050600073ffffffffffffffffffffffffffffffffffffffff168173ffffffffffffffffffffffffffffffffffffffff1614156100ca576040517f08c379a0000000000000000000000000000000000000000000000000000000008152600401808060200182810382526026815260200180610a906026913960400191505060405180910390fd5b336000806101000a81548173ffffffffffffffffffffffffffffffffffffffff021916908373ffffffffffffffffffffffffffffffffffffffff16021790555080600160006101000a81548173ffffffffffffffffffffffffffffffffffffffff021916908373ffffffffffffffffffffffffffffffffffffffff160217905550506109358061015b6000396000f3fe60806040526004361061004e5760003560e01c80630cda9983146100b0578063183ff085146101015780632e1a7d4d1461011857806383197ef014610153578063f2fde38b1461016a576100ab565b366100ab573373ffffffffffffffffffffffffffffffffffffffff167f90890809c654f11d6e72a28fa60149770a0d11ec6c92319d6ceb2bb0a4ea1a153447604051808381526020018281526020019250505060405180910390a2005b600080fd5b3480156100bc57600080fd5b506100ff600480360360208110156100d357600080fd5b81019080803573ffffffffffffffffffffffffffffffffffffffff1690602001909291905050506101bb565b005b34801561010d57600080fd5b506101166103c2565b005b34801561012457600080fd5b506101516004803603602081101561013b57600080fd5b8101908080359060200190929190505050610486565b005b34801561015f57600080fd5b506101686105b3565b005b34801561017657600080fd5b506101b96004803603602081101561018d57600080fd5b81019080803573ffffffffffffffffffffffffffffffffffffffff1690602001909291905050506106af565b005b6000809054906101000a900473ffffffffffffffffffffffffffffffffffffffff1673ffffffffffffffffffffffffffffffffffffffff163373ffffffffffffffffffffffffffffffffffffffff161461027d576040517f08c379a00000000000000000000000000000000000000000000000000000000081526004018080602001828103825260108152602001807f4572726f723a204e6f74206f776e65720000000000000000000000000000000081525060200191505060405180910390fd5b600073ffffffffffffffffffffffffffffffffffffffff168173ffffffffffffffffffffffffffffffffffffffff161415610303576040517f08c379a00000000000000000000000000000000000000000000000000000000081526004018080602001828103825260268152602001806108da6026913960400191505060405180910390fd5b8073ffffffffffffffffffffffffffffffffffffffff166000809054906101000a900473ffffffffffffffffffffffffffffffffffffffff1673ffffffffffffffffffffffffffffffffffffffff167f8549de2e11fbe3d1463875f6f2df0da96f47b654dcf5375e0fd856582d4fe77a60405160405180910390a380600160006101000a81548173ffffffffffffffffffffffffffffffffffffffff021916908373ffffffffffffffffffffffffffffffffffffffff16021790555050565b6000809054906101000a900473ffffffffffffffffffffffffffffffffffffffff1673ffffffffffffffffffffffffffffffffffffffff163373ffffffffffffffffffffffffffffffffffffffff1614610484576040517f08c379a00000000000000000000000000000000000000000000000000000000081526004018080602001828103825260108152602001807f4572726f723a204e6f74206f776e65720000000000000000000000000000000081525060200191505060405180910390fd5b565b6000809054906101000a900473ffffffffffffffffffffffffffffffffffffffff1673ffffffffffffffffffffffffffffffffffffffff163373ffffffffffffffffffffffffffffffffffffffff1614610548576040517f08c379a00000000000000000000000000000000000000000000000000000000081526004018080602001828103825260108152602001807f4572726f723a204e6f74206f776e65720000000000000000000000000000000081525060200191505060405180910390fd5b6000809054906101000a900473ffffffffffffffffffffffffffffffffffffffff1673ffffffffffffffffffffffffffffffffffffffff166108fc829081150290604051600060405180830381858888f193505050501580156105af573d6000803e3d6000fd5b5050565b6000809054906101000a900473ffffffffffffffffffffffffffffffffffffffff1673ffffffffffffffffffffffffffffffffffffffff163373ffffffffffffffffffffffffffffffffffffffff1614610675576040517f08c379a00000000000000000000000000000000000000000000000000000000081526004018080602001828103825260108152602001807f4572726f723a204e6f74206f776e65720000000000000000000000000000000081525060200191505060405180910390fd5b6000809054906101000a900473ffffffffffffffffffffffffffffffffffffffff1673ffffffffffffffffffffffffffffffffffffffff16ff5b6000809054906101000a900473ffffffffffffffffffffffffffffffffffffffff1673ffffffffffffffffffffffffffffffffffffffff163373ffffffffffffffffffffffffffffffffffffffff1614610771576040517f08c379a00000000000000000000000000000000000000000000000000000000081526004018080602001828103825260108152602001807f4572726f723a204e6f74206f776e65720000000000000000000000000000000081525060200191505060405180910390fd5b600073ffffffffffffffffffffffffffffffffffffffff168173ffffffffffffffffffffffffffffffffffffffff1614156107f7576040517f08c379a00000000000000000000000000000000000000000000000000000000081526004018080602001828103825260248152602001806108b66024913960400191505060405180910390fd5b8073ffffffffffffffffffffffffffffffffffffffff166000809054906101000a900473ffffffffffffffffffffffffffffffffffffffff1673ffffffffffffffffffffffffffffffffffffffff167f8be0079c531659141344cd1fd0a4f28419497f9722a3daafe3b4186f6b6457e060405160405180910390a3806000806101000a81548173ffffffffffffffffffffffffffffffffffffffff021916908373ffffffffffffffffffffffffffffffffffffffff1602179055505056fe4572726f723a206e6577206f776e657220697320746865207a65726f20616464726573734572726f723a206e6577206e6f6d696e656520697320746865207a65726f2061646472657373a2646970667358221220707dcd12c76b06324c9a8e9f53cf98cb596d21f01feee68e5e0d113627b5af6664736f6c634300060a00334572726f723a206e6577206e6f6d696e656520697320746865207a65726f2061646472657373",
  "immutableReferences": {},
  "source": "// SPDX-License-Identifier: MIT\npragma solidity >=0.6.0 <0.7.0;\n\ncontract EWill {\n    address payable owner;\n    address nominee;\n\n    event Deposit(address indexed sender, uint256 amount, uint256 balance);\n    event OwnershipTransferred(\n        address indexed previousOwner,\n        address indexed newOwner\n    );\n    event NomineeChanged(\n        address indexed previousNominee,\n        address indexed newNominee\n    );\n\n    constructor(address _nominee) public {\n        require(\n            _nominee != address(0),\n            \"Error: new nominee is the zero address\"\n        );\n        owner = msg.sender;\n        nominee = _nominee;\n    }\n\n    receive() external payable {\n        emit Deposit(msg.sender, msg.value, address(this).balance);\n    }\n\n    modifier onlyOwner() {\n        require(msg.sender == owner, \"Error: Not owner\");\n        _;\n    }\n\n    function transferOwnership(address payable _newOwner) public onlyOwner {\n        require(\n            _newOwner != address(0),\n            \"Error: new owner is the zero address\"\n        );\n        emit OwnershipTransferred(owner, _newOwner);\n        owner = _newOwner;\n    }\n\n    function changeNominee(address _nominee) public onlyOwner {\n        require(\n            _nominee != address(0),\n            \"Error: new nominee is the zero address\"\n        );\n        emit NomineeChanged(owner, _nominee);\n        nominee = _nominee;\n    }\n\n    function checkIn() public onlyOwner {\n        //TODO\n    }\n\n    function withdraw(uint256 value) public onlyOwner {\n        owner.transfer(value);\n    }\n\n    function destroy() public onlyOwner {\n        selfdestruct(owner);\n    }\n}\n",
  "sourcePath": "/home/rattle/Programming/github/E-Will/contracts/EWill.sol",
  "compiler": {
    "name": "solc",
    "version": "0.6.10+commit.00c0fcaf.Emscripten.clang"
  },
  "schemaVersion": "3.2.0",
  "updatedAt": "2020-07-08T10:04:12.359Z",
  "devdoc": {
    "methods": {}
  },
  "userdoc": {
    "methods": {}
  }
}