{
  "contractName": "EWill",
  "abi": [
    {
      "inputs": [
        {
          "internalType": "address payable",
          "name": "_nominee",
          "type": "address"
        },
        {
          "internalType": "uint256",
          "name": "_minBlockBuffer",
          "type": "uint256"
        }
      ],
      "stateMutability": "nonpayable",
      "type": "constructor"
    },
    {
      "anonymous": false,
      "inputs": [
        {
          "indexed": true,
          "internalType": "address",
          "name": "sender",
          "type": "address"
        },
        {
          "indexed": false,
          "internalType": "uint256",
          "name": "amount",
          "type": "uint256"
        },
        {
          "indexed": false,
          "internalType": "uint256",
          "name": "balance",
          "type": "uint256"
        }
      ],
      "name": "Deposit",
      "type": "event"
    },
    {
      "anonymous": false,
      "inputs": [
        {
          "indexed": true,
          "internalType": "address",
          "name": "previousNominee",
          "type": "address"
        },
        {
          "indexed": true,
          "internalType": "address",
          "name": "newNominee",
          "type": "address"
        }
      ],
      "name": "NomineeChanged",
      "type": "event"
    },
    {
      "anonymous": false,
      "inputs": [
        {
          "indexed": true,
          "internalType": "address",
          "name": "previousOwner",
          "type": "address"
        },
        {
          "indexed": true,
          "internalType": "address",
          "name": "newOwner",
          "type": "address"
        }
      ],
      "name": "OwnershipTransferred",
      "type": "event"
    },
    {
      "stateMutability": "payable",
      "type": "receive"
    },
    {
      "inputs": [
        {
          "internalType": "address payable",
          "name": "_newOwner",
          "type": "address"
        }
      ],
      "name": "transferOwnership",
      "outputs": [],
      "stateMutability": "nonpayable",
      "type": "function"
    },
    {
      "inputs": [
        {
          "internalType": "address payable",
          "name": "_nominee",
          "type": "address"
        }
      ],
      "name": "changeNominee",
      "outputs": [],
      "stateMutability": "nonpayable",
      "type": "function"
    },
    {
      "inputs": [],
      "name": "checkIn",
      "outputs": [],
      "stateMutability": "nonpayable",
      "type": "function"
    },
    {
      "inputs": [],
      "name": "hasGoneMissing",
      "outputs": [
        {
          "internalType": "bool",
          "name": "",
          "type": "bool"
        }
      ],
      "stateMutability": "nonpayable",
      "type": "function"
    },
    {
      "inputs": [
        {
          "internalType": "uint256",
          "name": "value",
          "type": "uint256"
        }
      ],
      "name": "withdrawFunds",
      "outputs": [],
      "stateMutability": "nonpayable",
      "type": "function"
    },
    {
      "inputs": [],
      "name": "claimInheritence",
      "outputs": [],
      "stateMutability": "nonpayable",
      "type": "function"
    },
    {
      "inputs": [],
      "name": "destroy",
      "outputs": [],
      "stateMutability": "nonpayable",
      "type": "function"
    }
  ],
  "bytecode": "0x608060405234801561001057600080fd5b50604051610d58380380610d588339818101604052604081101561003357600080fd5b810190808051906020019092919080519060200190929190505050600073ffffffffffffffffffffffffffffffffffffffff168273ffffffffffffffffffffffffffffffffffffffff1614156100d4576040517f08c379a0000000000000000000000000000000000000000000000000000000008152600401808060200182810382526022815260200180610d366022913960400191505060405180910390fd5b336000806101000a81548173ffffffffffffffffffffffffffffffffffffffff021916908373ffffffffffffffffffffffffffffffffffffffff16021790555081600160006101000a81548173ffffffffffffffffffffffffffffffffffffffff021916908373ffffffffffffffffffffffffffffffffffffffff16021790555043600281905550806003819055506000600460006101000a81548160ff0219169083151502179055505050610ba78061018f6000396000f3fe6080604052600436106100745760003560e01c80631a94fce41161004e5780631a94fce414610179578063239fd5e21461019057806383197ef0146101bf578063f2fde38b146101d6576100d1565b80630cda9983146100d6578063155dd5ee14610127578063183ff08514610162576100d1565b366100d1573373ffffffffffffffffffffffffffffffffffffffff167f90890809c654f11d6e72a28fa60149770a0d11ec6c92319d6ceb2bb0a4ea1a153447604051808381526020018281526020019250505060405180910390a2005b600080fd5b3480156100e257600080fd5b50610125600480360360208110156100f957600080fd5b81019080803573ffffffffffffffffffffffffffffffffffffffff169060200190929190505050610227565b005b34801561013357600080fd5b506101606004803603602081101561014a57600080fd5b810190808035906020019092919050505061042e565b005b34801561016e57600080fd5b5061017761055b565b005b34801561018557600080fd5b5061018e610626565b005b34801561019c57600080fd5b506101a56107d6565b604051808215151515815260200191505060405180910390f35b3480156101cb57600080fd5b506101d4610825565b005b3480156101e257600080fd5b50610225600480360360208110156101f957600080fd5b81019080803573ffffffffffffffffffffffffffffffffffffffff169060200190929190505050610921565b005b6000809054906101000a900473ffffffffffffffffffffffffffffffffffffffff1673ffffffffffffffffffffffffffffffffffffffff163373ffffffffffffffffffffffffffffffffffffffff16146102e9576040517f08c379a00000000000000000000000000000000000000000000000000000000081526004018080602001828103825260108152602001807f4572726f723a204e6f74206f776e65720000000000000000000000000000000081525060200191505060405180910390fd5b600073ffffffffffffffffffffffffffffffffffffffff168173ffffffffffffffffffffffffffffffffffffffff16141561036f576040517f08c379a0000000000000000000000000000000000000000000000000000000008152600401808060200182810382526026815260200180610b4c6026913960400191505060405180910390fd5b8073ffffffffffffffffffffffffffffffffffffffff166000809054906101000a900473ffffffffffffffffffffffffffffffffffffffff1673ffffffffffffffffffffffffffffffffffffffff167f8549de2e11fbe3d1463875f6f2df0da96f47b654dcf5375e0fd856582d4fe77a60405160405180910390a380600160006101000a81548173ffffffffffffffffffffffffffffffffffffffff021916908373ffffffffffffffffffffffffffffffffffffffff16021790555050565b6000809054906101000a900473ffffffffffffffffffffffffffffffffffffffff1673ffffffffffffffffffffffffffffffffffffffff163373ffffffffffffffffffffffffffffffffffffffff16146104f0576040517f08c379a00000000000000000000000000000000000000000000000000000000081526004018080602001828103825260108152602001807f4572726f723a204e6f74206f776e65720000000000000000000000000000000081525060200191505060405180910390fd5b6000809054906101000a900473ffffffffffffffffffffffffffffffffffffffff1673ffffffffffffffffffffffffffffffffffffffff166108fc829081150290604051600060405180830381858888f19350505050158015610557573d6000803e3d6000fd5b5050565b6000809054906101000a900473ffffffffffffffffffffffffffffffffffffffff1673ffffffffffffffffffffffffffffffffffffffff163373ffffffffffffffffffffffffffffffffffffffff161461061d576040517f08c379a00000000000000000000000000000000000000000000000000000000081526004018080602001828103825260108152602001807f4572726f723a204e6f74206f776e65720000000000000000000000000000000081525060200191505060405180910390fd5b43600281905550565b600160009054906101000a900473ffffffffffffffffffffffffffffffffffffffff1673ffffffffffffffffffffffffffffffffffffffff163373ffffffffffffffffffffffffffffffffffffffff16146106e9576040517f08c379a000000000000000000000000000000000000000000000000000000000815260040180806020018281038252600d8152602001807f4e6f742061206e6f6d696e65650000000000000000000000000000000000000081525060200191505060405180910390fd5b600460009054906101000a900460ff1661076b576040517f08c379a000000000000000000000000000000000000000000000000000000000815260040180806020018281038252601a8152602001807f4572726f723a207761732061637469766520726563656e746c7900000000000081525060200191505060405180910390fd5b600160009054906101000a900473ffffffffffffffffffffffffffffffffffffffff1673ffffffffffffffffffffffffffffffffffffffff166108fc479081150290604051600060405180830381858888f193505050501580156107d3573d6000803e3d6000fd5b50565b600060035460025443031115610806576001600460006101000a81548160ff02191690831515021790555061080f565b60009050610822565b600460009054906101000a900460ff1690505b90565b6000809054906101000a900473ffffffffffffffffffffffffffffffffffffffff1673ffffffffffffffffffffffffffffffffffffffff163373ffffffffffffffffffffffffffffffffffffffff16146108e7576040517f08c379a00000000000000000000000000000000000000000000000000000000081526004018080602001828103825260108152602001807f4572726f723a204e6f74206f776e65720000000000000000000000000000000081525060200191505060405180910390fd5b6000809054906101000a900473ffffffffffffffffffffffffffffffffffffffff1673ffffffffffffffffffffffffffffffffffffffff16ff5b6000809054906101000a900473ffffffffffffffffffffffffffffffffffffffff1673ffffffffffffffffffffffffffffffffffffffff163373ffffffffffffffffffffffffffffffffffffffff16146109e3576040517f08c379a00000000000000000000000000000000000000000000000000000000081526004018080602001828103825260108152602001807f4572726f723a204e6f74206f776e65720000000000000000000000000000000081525060200191505060405180910390fd5b600073ffffffffffffffffffffffffffffffffffffffff168173ffffffffffffffffffffffffffffffffffffffff161415610a69576040517f08c379a0000000000000000000000000000000000000000000000000000000008152600401808060200182810382526024815260200180610b286024913960400191505060405180910390fd5b8073ffffffffffffffffffffffffffffffffffffffff166000809054906101000a900473ffffffffffffffffffffffffffffffffffffffff1673ffffffffffffffffffffffffffffffffffffffff167f8be0079c531659141344cd1fd0a4f28419497f9722a3daafe3b4186f6b6457e060405160405180910390a3806000806101000a81548173ffffffffffffffffffffffffffffffffffffffff021916908373ffffffffffffffffffffffffffffffffffffffff1602179055505056fe4572726f723a206e6577206f776e657220697320746865207a65726f20616464726573734572726f723a206e6577206e6f6d696e656520697320746865207a65726f2061646472657373a264697066735822122093f4bc1ef3581efb783de373eb7ab10d0f6237b909511bb9fab44388bf7cb4b064736f6c634300060a00334572726f723a206e6f6d696e656520697320746865207a65726f2061646472657373",
  "immutableReferences": {},
  "source": "// SPDX-License-Identifier: MIT\npragma solidity >=0.6.0 <0.7.0;\n\ncontract EWill {\n    address payable owner;\n    address payable nominee;\n    uint256 lastCheckInBlock;\n    uint256 minBlockBuffer;\n    bool isMissing;\n\n    event Deposit(address indexed sender, uint256 amount, uint256 balance);\n    event OwnershipTransferred(\n        address indexed previousOwner,\n        address indexed newOwner\n    );\n    event NomineeChanged(\n        address indexed previousNominee,\n        address indexed newNominee\n    );\n\n    constructor(address payable _nominee, uint256 _minBlockBuffer) public {\n        require(_nominee != address(0), \"Error: nominee is the zero address\");\n        owner = msg.sender;\n        nominee = _nominee;\n        lastCheckInBlock = block.number;\n        minBlockBuffer = _minBlockBuffer;\n        isMissing = false;\n    }\n\n    receive() external payable {\n        emit Deposit(msg.sender, msg.value, address(this).balance);\n    }\n\n    modifier onlyOwner() {\n        require(msg.sender == owner, \"Error: Not owner\");\n        _;\n    }\n\n    modifier onlyNominee() {\n        require(msg.sender == nominee, \"Not a nominee\");\n        _;\n    }\n\n    function transferOwnership(address payable _newOwner) public onlyOwner {\n        require(\n            _newOwner != address(0),\n            \"Error: new owner is the zero address\"\n        );\n        emit OwnershipTransferred(owner, _newOwner);\n        owner = _newOwner;\n    }\n\n    function changeNominee(address payable _nominee) public onlyOwner {\n        require(\n            _nominee != address(0),\n            \"Error: new nominee is the zero address\"\n        );\n        emit NomineeChanged(owner, _nominee);\n        nominee = _nominee;\n    }\n\n    function checkIn() public onlyOwner {\n        lastCheckInBlock = block.number;\n    }\n\n    function hasGoneMissing() public returns (bool) {\n        if (block.number - lastCheckInBlock > minBlockBuffer) {\n            isMissing = true;\n        } else {\n            return false;\n        }\n        return isMissing;\n    }\n\n    function withdrawFunds(uint256 value) public onlyOwner {\n        owner.transfer(value);\n    }\n\n    function claimInheritence() public onlyNominee {\n        require(isMissing, \"Error: was active recently\");\n        nominee.transfer(address(this).balance);\n    }\n\n    function destroy() public onlyOwner {\n        selfdestruct(owner);\n    }\n}\n",
  "sourcePath": "/home/rattle/Programming/github/E-Will/contracts/EWill.sol",
  "compiler": {
    "name": "solc",
    "version": "0.6.10+commit.00c0fcaf.Emscripten.clang"
  },
  "schemaVersion": "3.2.0",
  "updatedAt": "2020-07-08T15:38:57.736Z",
  "devdoc": {
    "methods": {}
  },
  "userdoc": {
    "methods": {}
  }
}